:0400000099EF00F084
:100008004882FACF0AF0FBCF0BF0E9CF0CF0EACF29
:100018000DF0E1CF0EF0E2CF0FF0D9CF10F0DACF2C
:1000280011F0F3CF12F0F4CF13F0F6CF14F0F7CFAE
:1000380015F0F8CF16F0F5CF17F048C018F049C002
:1000480019F04AC01AF04BC01BF004003380F2A428
:1000580032D03390F294D80ED76EF00ED66E010ED1
:100068002826000E29222A222B2233A213D02B5015
:100078002A10291004E1050E285CD8A00BD0000E28
:10008800286E000E296E000E2A6E000E2B6E3AECBA
:1000980003F011D033B20FD03AEC03F0312A190E25
:1000A800316409D03382000E286E000E296E000ECE
:1000B8002A6E000E2B6E9EAA10D03390AECF30F071
:1000C8009E9A01D80AD00500FA6E4650FD6E475038
:1000D800FE6EF850FF6EFA50120033A0B6D71BC060
:1000E8004BF01AC04AF019C049F018C048F017C0C0
:1000F800F5FF16C0F8FF15C0F7FF14C0F6FF13C0D0
:10010800F4FF12C0F3FF11C0DAFF10C0D9FF0FC00F
:10011800E2FF0EC0E1FF0DC0EAFF0CC0E9FF0BC013
:0E012800FBFF0AC0FAFF4892110000EF03F03F
:1003000000FFE7A93833309E08002E50010D1C0E67
:10031000F324D96E000EF420DA6E30C0DFFF2E2AEF
:100320000B0E2E641200000E2F6E540E466E050E3C
:10033000476E000E086E000E096E0B0E096401D0A8
:1003400034D00950010D1C0EF324D96E000EF42098
:10035000DA6E1C50DE18D8B425D00950016E026A3E
:10036000010E0126000E02221C0E0124D96E000E81
:100370000220DA6EDE501D18D8B414D00950016E78
:10038000026A020E0126000E02221C0E0124D96E02
:10039000000E0220DA6EDE501E18D8B403D0010E13
:1003A000086E03D0030E0926C8D70850D8A412003F
:1003B0008BBA03D0016A012A01D0016A013A0146D1
:1003C0008B500118DF0B01188B6E33843392000EB3
:1003D000316E4C0E2C24046E1D0E2D20056ED6CFD2
:1003E00006F0D7CF07F004C001F005C002F0011EEF
:1003F000021E014A022A06500124D66E075002202E
:10040000D76EF29412008A8893988B9294928B9470
:100410009494A10ECD6E000ECF6E000ECE6E9E9007
:1004200001D004009EA0FDD7800ECD6ECA0E000143
:10043000616F810E606FE1EC02F0CA0E0001616F26
:10044000830E606FE1EC02F0800E0001616F330EED
:10045000606FE1EC02F0C40E0001616FD70E606FB7
:10046000E1EC02F03250020D340EF324D96E000E8E
:10047000F420DA6EDECF64F0DDCF65F0000E00010F
:100480006411606FA00E6511616FE1EC02F0C60EA1
:100490000001616F030E606FE1EC02F0820E00015B
:1004A000616F010E606FE1EC02F0940E0001616F6C
:1004B000200E606FE1EC02F0980E0001616FF00E0B
:1004C000606FE1EC02F0C20E0001616F3C0E606FE4
:1004D000E1EC02F0820E0001616F810E606FE1ECD1
:1004E00002F01200E00ED36E8B9A949A000E7E6E8C
:1004F000000E7F6E000E336E000E286E000E296E09
:10050000000E2A6E000E2B6E000E2F6E540E466EDD
:10051000050E476E03EC02F055EC03F0840ED56E29
:10052000D80ED76EF00ED66EE00EF26E040033A435
:10053000FDD73394FF0E69EC03F0E70E69EC03F08E
:100540001C5069EC03F01D5069EC03F01E5069EC7F
:1005500003F0ECD72F50010D010EF324F66E030EBD
:10056000F420F76E0800F5503018D8A414D02F509E
:10057000D8A404D0D6CF2CF0D7CF2DF02F2A070E39
:100580002F6412000A0E466E030E476E000E2E6E8A
:10059000000E2F6E1200010EF66E030EF76E0800AD
:1005A000F5503018D8A407D0010E2F6ED6CF2CF0FE
:1005B000D7CF2DF012002F50D8B41200000E2F6E9E
:1005C000120004008A98000E0001636F0F0E63652D
:1005D00001D014D061AF03D0626B622B02D0000156
:1005E000626B62478B506219FD0B62198B6ED8905B
:1005F000603761378B848B94632BE8D78A8812002D
:10060000C00EF66E060EF76E000EF86E00EE34F0B9
:1006100010EE12F00900F5CFEEFFE550E150FAE1DF
:1006200000EE1CF0180EEE6AE806FDE148904892D4
:10063000000EF86E000172EF02F004008A98000EBE
:10064000046E0F0E046401D013D002AE03D0036A0F
:10065000032A01D0036A03468B500318FD0B0318CD
:100660008B6ED890013602368B848B94042AE9D79E
:100670008A881200322A080E326402D0000E326ECE
:100680003250020D340EF324D96E000EF420DA6ECF
:10069000DECF05F0DDCF06F0000E0510016EA00ED6
:1006A0000610026E1DEC03F01200240EAC6E900ECC
:1006B000AB6E080EB86E4F0EAF6E9E9A9D8A1200FA
:1006C000A000FF0ECF073704670B6B02330D030644
:1006D0009B090001606F04009EA8FED760C0ADFFBB
:0206E000120006
:020000040020DA
:08000000FFFFFFFFFFFFFFFF00
:020000040030CA
:0E0000000038171FFF8081FF03C003E003409C
:00000001FF
