:1000000012C02CC02BC02AC02AC028C027C026C0BE
:1000100025C024C023C022C021C020C01FC01EC0D4
:100020001DC01CC01BC011241FBECFE5D4E0DEBF25
:10003000CDBF11E0A0E6B0E0EAE1F9E002C0059032
:100040000D92A43DB107D9F722E0A4EDB1E001C0C3
:100050001D92A238B207E1F7F5D35DC4D1CF1F924C
:100060000F920FB60F9211242F933F934F935F93EC
:100070006F937F938F939F93AF93BF93CF93DF93B0
:10008000EF93FF93E091E001F091E101818182BB68
:1000900088E090E031D3E091E001F091E1018281CC
:1000A00082BBE091E001F091E101808184BDE091AB
:1000B000E001F091E101CF0103969093E10180937B
:1000C000E001838181111AC083EE91E09093E101F8
:1000D0008093E0018091D401882381F0E3EFF1E087
:1000E000C3EED1E081919191A19189939993A993C4
:1000F00082E0E230F807B1F71092D401FF91EF915E
:10010000DF91CF91BF91AF919F918F917F916F912F
:100110005F914F913F912F910F900FBE0F901F90C5
:100120001895E091E201AE2FB0E0AF59BF4F3C917E
:100130003093DE01A5E5AE0FB0E0AF59BF4F6C9133
:100140006093DF01E655F0E0EF59FF4F5081509387
:10015000F2011092FF0184E080930002809301027B
:100160001092F3018093F40184EB8093F501E8EFA2
:10017000F1E085FD05C087FD33C084FD0DC011C0D1
:10018000982F9F7D292F216087FD28C0732F432F33
:1001900084FF07C0751728F0982F9F7E292F2860AD
:1001A000452FDF0112974C9311969C932083339631
:1001B00082E0E130F80711F0822FDBCFE3EFF1E0CE
:1001C00083819081891B80958083339681E0EC3F09
:1001D000F807B1F781E08093D40108953617B0F2A3
:1001E000982F9F77292F2260762F462FD1CFCF933C
:1001F000DF9381E791E06DD0F1D28CE791E069D097
:100200008091DE0190E006D182E891E062D0809199
:10021000DF0190E0FFD088E891E05BD08091F201AF
:1002200090E0F8D0DBD28AE078D2C5EFD1E08EE85A
:1002300091E04FD0FE013297808190E0EBD084E9CD
:1002400091E047D0FE01319780817BD082EA91E036
:1002500040D0888176D0C2D28AE05FD2239682E0F5
:10026000C430D80721F7DF91CF9108950F931F93E2
:10027000CF93DF9378941092E20153DFC4E6D0E08D
:1002800088EE93E039D22197D9F788EE93E034D203
:10029000C0E0D0E061E00AE010E08091E201860F6A
:1002A0008093E2013EDF2196C03AD10551F088EEFD
:1002B00093E022D2CE01B801FBD26111EECF61E012
:1002C000ECCFF89484E082BBDF91CF911F910F9126
:1002D0000895CF93DF932091DC013091DD01203828
:1002E000310564F5FC014081442341F1DC011196A4
:1002F00005C0FD0111968081882301F16091DA012A
:100300007091DB01AB014F5F5F4F5093DB01409376
:10031000DA01EB01CE5FDD4F808188832F5F3F4F95
:100320003093DD012093DC014038510524F0109218
:10033000DB011092DA0120383105D9F6DF91CF9137
:100340000895CF93DF93CDB7DEB72A970FB6F89411
:10035000DEBF0FBECDBFFE0131969E01275F3F4F2E
:1003600090E341E306C09083880F3196E217F307CC
:1003700041F087FFF8CF4083880F3196E217F307EB
:10038000C1F780E289871A86CE010196A2DF2A96FC
:100390000FB6F894DEBF0FBECDBFDF91CF910895A9
:1003A000CF93DF93CDB7DEB728970FB6F894DEBFB3
:1003B0000FBECDBFFE01319650E040E09C01232FDF
:1003C000332722952F7021153105E1F451111AC000
:1003D0004330C1F082959295907F9827807F98272F
:1003E0004F5F443059F780E280831182CE0101963D
:1003F00070DF28960FB6F894DEBF0FBECDBFDF9139
:10040000CF910895D901AF59BE4F2C9120833196D9
:1004100051E0E0CFCF92DF92EF92FF920F931F93C4
:10042000CF93DF93CDB7DEB728970FB6F894DEBF32
:100430000FBECDBF9C0197FD62C08E010F5F1F4FA5
:10044000F801213187E238070CF44DC07F01AFEF8E
:10045000EA1AFA0AC90160E177E22AD2605D608394
:10046000F7013196C90168EE73E022D2CB016AE050
:1004700070E01ED2805DD7018C937F01BFEFEB1A35
:10048000FB0AC90164E670E013D2CB016AE070E0B8
:100490000FD2805D8083F70131967AE0C72ED12C90
:1004A000C901B60105D2CB01B60102D2805DD701E8
:1004B0008C93C9016AE070E0FBD1805D808380E2AB
:1004C00081831282C80105DF28960FB6F894DEBF3B
:1004D0000FBECDBFDF91CF911F910F91FF90EF9095
:1004E000DF90CF900895293EB3E03B079CF425367A
:1004F00031051CF62B303105E4F27F01CCCF8DE2C3
:100500008983319521953109FE0132968E010F5F65
:100510001F4F97CF7F01A4CFCF92DF92EF92FF9230
:100520000F931F93CF93DF93CDB7DEB728970FB606
:10053000F894DEBF0FBECDBFAC01413187E2580752
:1005400008F4C5C09A01329522952F7023273F7079
:100550002327A7E4B3E0BFD1969587959695879515
:1005600096958795805D89837E01A2E0EA0EF11C55
:100570008E010F5F1F4FF70131969A01369527952F
:100580003695279536952795A5ECB0E2A4D16C0158
:10059000D294C2948FE0C822CD24D822CD249601D3
:1005A000ADECBCEC98D196958795969587959695E8
:1005B0008795BC01660F771F880F991F880F991FB9
:1005C000880F991F680F791FC601861B970B805DE6
:1005D000D7018C937F01BFEFEB1AFB0A9A01369586
:1005E000279536952795ABE7B4E175D16C01D69484
:1005F000C7949601ADECBCEC6ED196958795969517
:10060000879596958795BC01660F771F880F991F70
:10061000880F991F880F991F680F791FC601861BC5
:10062000970B805D8083F70131969A01ADECBCECAD
:1006300052D16C01D694C794D694C794D694C794DB
:10064000960149D196958795969587959695879524
:10065000BC01660F771F880F991F880F991F880F9D
:10066000991F680F791FC601861B970B805DD70104
:100670008C939A01ADECBCEC2ED19695879596950E
:100680008795969587959C01220F331FBC01660FB5
:10069000771F660F771F660F771F260F371F421BC6
:1006A000530B405D408380E281831282C80111DEDA
:1006B00028960FB6F894DEBF0FBECDBFDF91CF9165
:1006C0001F910F91FF90EF90DF90CF9008958E01D2
:1006D0000F5F1F4F493EB3E05B0750F445365105AD
:1006E00048F44B30510510F4F801C3CF78019BCF8B
:1006F000780141CFF8016ECF8230910568F0880F04
:10070000991F880F991F05970197F1F700000000C6
:1007100000000000000000000895C198EBE9F1E03E
:100720003197F1F700000000000000000000000019
:1007300098E02BE931E00DC0C19AF9013197F1F74A
:1007400000000000000000000000000086959150AD
:1007500021F080FDF1CFC198F0CFC19A8BE991E0F3
:100760000197F1F700000000000000000000000009
:100770000895829932C083E890E00197F1F7000074
:100780000000000000000000000058E02BE931E00C
:100790004091D50146954093D501C9010197F1F7E4
:1007A000000000000000000000000000829B03C069
:1007B00040684093D501515059F78BE991E001977A
:1007C000F1F700000000000000000000000081E0E0
:1007D00090E09093D7018093D60108958091DC0139
:1007E0009091DD01181619063CF58091D801909181
:1007F000D9019C012F5F3F4F3093D9012093D8013D
:10080000FC01EE5FFD4F808188DF8091D8019091DF
:10081000D9018038910524F01092D9011092D801A5
:100820008091DC019091DD0101979093DD0180932F
:10083000DC0118161906CCF20895B99AC19A8A9863
:10084000929A0895FADF80EB91E043DDC7DF90983C
:1008500091989398959897989498889A899A8B9A52
:100860008D9A8F9A8C9A1092E2015BDC83EE91E074
:100870009093E1018093E001BADCC8EED3E088EE0A
:1008800093E03ADF2197D9F783E085BD80E489BF03
:1008900070DF8091D6019091D701892BC9F3109216
:1008A000D7011092D6018091D50137DFDFDCF0CF80
:1008B00097FB072E16F4009406D077FD08D017D0CA
:1008C00007FC05D03EF4909581959F4F0895709553
:1008D00061957F4F0895A29FB001B39FC001A39F70
:1008E00001D0B29F700D811D1124911D0895AA1B86
:1008F000BB1B51E107C0AA1FBB1FA617B70710F00B
:10090000A61BB70B881F991F5A95A9F7809590953C
:0A091000BC01CD010895F894FFCF5B
:10091A00FF808386898C8F9295989C9FA2A5A8AB0D
:10092A00AEB0B3B6B9BCBFC1C4C7C9CCCED1D3D59A
:10093A00D8DADCDEE0E2E4E6E8EAECEDEFF0F2F346
:10094A00F5F6F7F8F9FAFBFCFCFDFEFEFFFFFFFFE8
:10095A00FFFFFFFFFFFFFFFEFEFDFCFCFBFAF9F8BD
:10096A00F7F6F5F3F2F0EFEDECEAE8E6E4E2E0DEC2
:10097A00DCDAD8D5D3D1CECCC9C7C4C1BFBCB9B6CD
:10098A00B3B0AEABA8A5A29F9C9895928F8C89868E
:10099A0083807C797673706D6A6763605D5A575499
:1009AA00514F4C494643403E3B383633312E2C2A70
:1009BA00272523211F1D1B1917151312100F0D0CA4
:1009CA000A090807060504030302010101010101DE
:1009DA0001010101010101010102030304050607E6
:1009EA0008090A0C0D0F1012131517191B1D1F21C8
:1009FA002325272A2C2E313336383B3E404346499D
:100A0A004C4F5154575A5D6063676A6D70737679BB
:100A1A007C30313233343536373839616263646554
:100A2A006664756D705F70776D200A0070776D313E
:100A3A003D0070776D323D0070776D333D0074690B
:100A4A006D653D0009706F72745F76616C75653112
:100A5A003D0009706F72745F76616C7565323D0096
:100A6A002A2A2A2A0A57656C636F6D6520746F20DB
:100A7A00746865206C656720636F6E74726F6C6C46
:040A8A0065720A0087
:00000001FF
