:04000000E5EF00F038
:100008003982FACF0FF0FBCF10F0E9CF11F0EACF29
:1000180012F0E1CF13F0E2CF14F0D9CF15F0DACF18
:1000280016F0F3CF17F0F4CF18F0F6CF19F0F7CF9A
:100038001AF0F8CF1BF0F5CF1CF039C01DF03AC00C
:100048001EF03BC01FF03CC020F004003580F2A435
:1000580072D0F294B10ED76EE00ED66E3590010EC6
:100068002F26000E3022312232228BEC01F035A2ED
:1000780062D009EC02F027EC04F022682BC001F0F2
:100088002CC002F02DC003F02EC004F027C005F0EC
:1000980028C006F029C007F02AC008F0F2EC02F0E8
:1000A800030E05D0D8900432033202320132E82E12
:1000B800F9D701502212000E2B6E000E2C6E000E86
:1000C8002D6E000E2E6E000E276E000E286E000E8E
:1000D800296E000E2A6E000E216E070E216401D0D3
:1000E8000ED02150010D010EF324F66E030EF420FC
:1000F800F76E0800F55030EC04F0212AEED738509E
:1001080030EC04F0225030EC04F0385030EC04F0BD
:10011800225030EC04F0385030EC04F0225030EC2F
:1001280004F0385030EC04F0225030EC04F037EC96
:1001380004F017EC04F09EAC1CD03590C3502B266D
:10014800C4502C22000E2D22000E2E22010E27262E
:10015800000E282229222A22C28201D80AD00500AC
:10016800FA6E3650FD6E3750FE6EF850FF6EFA503C
:10017800120035A06AD720C03CF01FC03BF01EC05B
:100188003AF01DC039F01CC0F5FF1BC0F8FF1AC0BB
:10019800F7FF19C0F6FF18C0F4FF17C0F3FF16C029
:1001A800DAFF15C0D9FF14C0E2FF13C0E1FF12C087
:1001B800EAFF11C0E9FF10C0FBFF0FC0FAFF399238
:0601C8001100EBEF03F053
:1003000000FFE72F3873AE5E900301010400000187
:10031000010304000000180E361804E1070E371818
:10032000D8B41200580E361804E1050E3718D8B4A8
:100330001200030E3818D8A40ED08BBE03D00A6A60
:100340000A2A01D00A6A0A320A328B500A187F0B35
:100350000A188B6E12002FC001F030C002F031C0BD
:1003600003F032C004F0050E056E000E066E000E9E
:10037000076E000E086E33EC03F0015002100310FC
:100380000410D8A412003850060D090EF3240C6E88
:10039000030EF4200D6E3350D8A433063350D8A486
:1003A00012008BBE03D00A6A0A2A01D00A6A0A32F6
:1003B0000A328B500A187F0B0A188B6E342A050EEE
:1003C000346402D0000E346E3450010D0CC00AF0BB
:1003D0000DC00BF0F3500A26F4500B220AC0F6FFB2
:1003E0000BC0F7FF0800F5500009D8B4E7D7345028
:1003F000010D0CC00AF00DC00BF0F3500A26F450AA
:100400000B220AC0F6FF0BC0F7FF0800F5CF33F050
:1004100012008B8C949C8B9894988B969496CA0E11
:10042000026E810E016ECEEC03F0CA0E026E830ED8
:10043000016ECEEC03F0800E026E330E016ECEEC38
:1004400003F0C40E026ED70E016ECEEC03F0A00EC8
:10045000026E600E016ECEEC03F0C60E026E030E4D
:10046000016ECEEC03F0820E026E010E016ECEEC38
:1004700003F0940E026E200E016ECEEC03F0980E87
:10048000026EF00E016ECEEC03F0C20E026E3C0E58
:10049000016ECEEC03F0820E026E210E016ECEECE8
:1004A00003F0810ECD6EEC0ECF6E780ECE6E9E9068
:1004B00001D004009EA0FDD7800ECD6E12003250F8
:1004C0003110301004E1050E2F5CD8A012002BC0B3
:1004D00001F02CC002F02DC003F02EC004F027C0A4
:1004E00005F028C006F029C007F02AC008F0F2EC99
:1004F00002F0030E05D0D8900432033202320132EA
:10050000E82EF9D701500E6EBF0E0E6402D0010E18
:1005100004D0410E0E6002D0000E386E000E2B6E1D
:10052000000E2C6E000E2D6E000E2E6E000E276E2D
:10053000000E286E000E296E000E2A6E580E366EC2
:10054000050E376E8B9E000E2F6E000E306E000E65
:10055000316E000E326E12002F50301031103210FA
:10056000D8B412002BC001F02CC002F02DC003F053
:100570002EC004F027C005F028C006F029C007F0FF
:100580002AC008F0F2EC02F0050E05D0D890043233
:10059000033202320132E82EF9D701500E6E810E7D
:1005A0000E6007D07E0E0E6404D0880E366E080EE4
:1005B000376E000E2B6E000E2C6E000E2D6E000E90
:1005C0002E6E000E276E000E286E000E296E000E95
:1005D0002A6E000E2F6E000E306E000E316E000E71
:1005E000326E1200000E096E000E0A6E000E0B6EC7
:1005F000000E0C6E0550061007100810D8B42AD053
:10060000010E0D6E06D0D890053606360736083630
:100610000D2A08AEF8D7D89009360A360B360C36B4
:100620000550015C06500258075003580850045802
:10063000D8A009D00550015E0650025A0750035A4F
:100640000850045A0980D890083207320632053221
:100650000D2EE1D709C001F00AC002F00BC003F073
:100660000CC004F012000550061007100810D8B492
:1006700024D0010E096E06D0D8900536063607360E
:100680000836092A08AEF8D70550015C0650025812
:100690000750035808500458D8A008D00550015EF0
:1006A0000650025A0750035A0850045AD89008328C
:1006B000073206320532092EE7D701C001F002C029
:1006C00002F003C003F004C004F01200C00ED36EA9
:1006D0008B8E949E000E356E000E2F6E000E306EC7
:1006E000000E316E000E326E100E7E6E000E7F6EAA
:1006F000110EC26EBE0EC06E9E9C9D8C8B8E07EC42
:1007000004F0880ED56EB10ED76EE00ED66EE00EF8
:10071000F26EC2820400FED732503110301004E174
:10072000050E2F5CD8A01200000E2B6E000E2C6E52
:10073000000E2D6E000E2E6E000E276E000E286E1F
:10074000000E296E000E2A6EBE0E366E040E376E37
:10075000000E2F6E000E306E000E316E000E326EE7
:10076000120004008B9C000E266E0F0E266401D032
:1007700013D024AE03D0256A252A01D0256A253A54
:100780008B502518EF0B25188B6ED8902336243606
:100790008B868B96262AE9D78B8C120004008B9CC3
:1007A000000E046E0F0E046401D013D002AE03D00D
:1007B000036A032A01D0036A033A8B500318EF0B34
:1007C00003188B6ED890013602368B868B96042ADE
:1007D000E9D78B8C12008C0EF66E080EF76E000EA9
:1007E000F86E0900F5CF36F00900F5CF37F00900B3
:1007F000F5CF38F000EE27F00F0EEE6AE806FDE1C7
:1008000039903992000EF86E000166EF03F08B8C80
:10081000949C8B9894988B969496820E246E010EDD
:10082000236EB1EC03F0948C9488948612008B8C28
:10083000949C8B9894988B969496820E026E010EDF
:10084000016ECEEC03F0948C948894861200240EF2
:10085000AC6E800EAB6E080EB86E040EAF6E12005A
:10086000016E04009EA8FED701C0ADFF12003EEC51
:1008700004F0000EAC6E000EAB6E120004009EA8D9
:0F088000FED7ACB21200FDD73582120018070365
:020000040020DA
:08000000FFFFFFFFFFFFFFFF00
:020000040030CA
:0E0000000028171FFF8081FF03C003E00340AC
:00000001FF
