:04000000E4EF00F039
:100008003B82FACF11F0FBCF12F0E9CF13F0EACF21
:1000180014F0E1CF15F0E2CF16F0D9CF17F0DACF10
:1000280018F0F3CF19F0F4CF1AF0F6CF1BF0F7CF92
:100038001CF0F8CF1DF0F5CF1EF03BC01FF03CC000
:1000480020F03DC021F03EC022F004003780F2A429
:1000580071D0F294B10ED76EE00ED66E3790010EC5
:100068003126000E32223322342291EC01F037A2DD
:1000780061D073EC02F04BEC04F029C001F02AC007
:1000880002F02BC003F02CC004F025C005F026C0F8
:1000980006F027C007F028C008F013EC03F0030EA1
:1000A80005D0D8900432033202320132E82EF9D753
:1000B8000150246E000E296E000E2A6E000E2B6E63
:1000C800000E2C6E000E256E000E266E000E276E9A
:1000D800000E286E000E236E070E236401D00ED08A
:1000E8002350010D010EF324F66E030EF420F76E73
:1000F8000800F55054EC04F0232AEED73A5054EC9B
:1001080004F0245054EC04F03A5054EC04F0245019
:1001180054EC04F03A5054EC04F0245054EC04F03D
:100128003A5054EC04F0245054EC04F05BEC04F026
:100138003BEC04F09EAC1CD03790C3502926C45029
:100148002A22000E2B22000E2C22010E2526000E3C
:10015800262227222822C28201D80AD00500FA6E58
:100168003850FD6E3950FE6EF850FF6EFA5012008E
:1001780037A06BD722C03EF021C03DF020C03CF034
:100188001FC03BF01EC0F5FF1DC0F8FF1CC0F7FFE5
:100198001BC0F6FF1AC0F4FF19C0F3FF18C0DAFF3E
:1001A80017C0D9FF16C0E2FF15C0E1FF14C0EAFF6F
:1001B80013C0E9FF12C0FBFF11C0FAFF3B92110008
:0401C8000EEF04F042
:1003000000FFE72F3873AE5E900301010400000187
:1003100001030400000101010101010101010101CA
:1003200001005A0E381804E1070E3918D8B412002B
:100330001E0E381804E1040E3918D8B41200030E4A
:100340003A18D8A40ED08BBE03D00A6A0A2A01D06C
:100350000A6A0A320A328B500A187F0B0A188B6E0F
:10036000120031C001F032C002F033C003F034C0DB
:1003700004F0050E056E000E066E000E076E000EF0
:10038000086E54EC03F00150021003100410D8A4BE
:1003900012003A50060D090EF3240C6E030EF420E1
:1003A0000D6E3550D8A435063550D8A412008BBE3A
:1003B00003D00A6A0A2A01D00A6A0A320A328B502A
:1003C0000A187F0B0A188B6E362A050E366402D087
:1003D000000E366E3650010D0CC00AF00DC00BF049
:1003E000F3500A26F4500B220AC0F6FF0BC0F7FFA9
:1003F0000800F5500009D8B4E7D73650010D0CC0FD
:100400000AF00DC00BF0F3500A26F4500B220AC07C
:10041000F6FF0BC0F7FF0800F5CF35F0120034509F
:100420003310321004E1050E315CD8A0120029C04F
:1004300001F02AC002F02BC003F02CC004F025C04C
:1004400005F026C006F027C007F028C008F013EC1E
:1004500003F0030E05D0D890043203320232013289
:10046000E82EF9D70150106E410E106002D0010E37
:1004700004D0BF0E106402D0000E3A6E000E296E3A
:10048000000E2A6E000E2B6E000E2C6E000E256ED6
:10049000000E266E000E276E000E286E920E386E2D
:1004A000050E396E3A50060D090EF3240E6E030E3A
:1004B000F4200F6E0EC0F6FF0FC0F7FF0800F5CF57
:1004C00035F08B9E000E316E000E326E000E336ED4
:1004D000000E346E000E2D6E000E2E6E000E2F6E6E
:1004E000000E306E12008B8C949C8B9894988B9697
:1004F0009496CA0E026E810E016EF1EC03F0CA0EE4
:10050000026E830E016EF1EC03F0800E026E330E6C
:10051000016EF1EC03F0C40E026ED70E016EF1EC29
:1005200003F0A00E026E600E016EF1EC03F0C60E39
:10053000026E030E016EF1EC03F0820E026E010EEC
:10054000016EF1EC03F0940E026E200E016EF1ECE0
:1005500003F0980E026EF00E016EF1EC03F0C20E85
:10056000026E3C0E016EF1EC03F0820E026E210E63
:10057000016EF1EC03F0810ECD6EEC0ECF6E780EB5
:10058000CE6E9E9001D004009EA0FDD7800ECD6E51
:10059000120031502D5C32502E5833502F583450A9
:1005A0003058D8B0120029C001F02AC002F02BC088
:1005B00003F02CC004F025C005F026C006F027C0CB
:1005C00007F028C008F013EC03F0030E05D0D89014
:1005D0000432033202320132E82EF9D701500E6E96
:1005E000830E0E6007D07D0E0E6404D0D00E386EE0
:1005F000080E396E000E296E000E2A6E000E2B6E4C
:10060000000E2C6E000E256E000E266E000E276E5C
:10061000000E286E31C02DF032C02EF033C02FF006
:1006200034C030F01200000E096E000E0A6E000E8B
:100630000B6E000E0C6E0550061007100810D8B493
:100640002AD0010E0D6E06D0D89005360636073634
:1006500008360D2A08AEF8D7D89009360A360B3678
:100660000C360550015C06500258075003580850DC
:100670000458D8A009D00550015E0650025A075010
:10068000035A0850045A0980D890083207320632BB
:1006900005320D2EE1D709C001F00AC002F00BC0EF
:1006A00003F00CC004F012000550061007100810EB
:1006B000D8B424D0010E096E06D0D890053606367F
:1006C00007360836092A08AEF8D70550015C0650EF
:1006D00002580750035808500458D8A008D00550B5
:1006E000015E0650025A0750035A0850045AD89027
:1006F0000832073206320532092EE7D701C001F071
:1007000002C002F003C003F004C004F01200C00EE7
:10071000D36E8B8E949E000E376E000E316E000EDF
:10072000326E000E336E000E346E100E7E6E000EB2
:100730007F6E110EC26EBE0EC06E9E9C9D8C8B8E07
:100740002AEC04F0880ED56EB10ED76EE00ED66E90
:10075000E00EF26EC2820400FED734503310321025
:1007600004E1050E315CD8A01200000E296E000EC7
:100770002A6E000E2B6E000E2C6E000E256E000EE3
:10078000266E000E276E000E286E1E0E386E040EAA
:10079000396E000E316E000E326E000E336E000E9A
:1007A000346E120004008B9C000E0001636F0F0E6C
:1007B000636501D014D061AF03D0626B622B02D0AD
:1007C0000001626B623B8B506219EF0B62198B6EFA
:1007D000D890603761378B868B96632BE8D78B8CEC
:1007E000120004008B9C000E046E0F0E046401D0F6
:1007F00013D002AE03D0036A032A01D0036A033A7E
:100800008B500318EF0B03188B6ED890013602360D
:100810008B868B96042AE9D78B8C1200D40EF66E49
:10082000080EF76E000EF86E0900F5CF38F00900DB
:10083000F5CF39F00900F5CF3AF000EE25F0130EB0
:10084000EE6AE806FDE13B903B92000EF86E000177
:1008500087EF03F08B8C949C8B9894988B9694964E
:10086000820E0001616F010E606FD2EC03F0948C78
:100870009488948612008B8C949C8B9894988B9679
:100880009496820E026E010E016EF1EC03F0948CD0
:10089000948894861200240EAC6E800EAB6E080E07
:1008A000B86E040EAF6E1200016E04009EA8FED753
:1008B00001C0ADFF120062EC04F0000EAC6E000E41
:1008C000AB6E120004009EA8FED7ACB21200FDD79A
:0708D000378212005A0703F2
:020000040020DA
:08000000FFFFFFFFFFFFFFFF00
:020000040030CA
:0E0000000028171FFF8081FF03C003E00340AC
:00000001FF
