:10080000FE81FE8BFE95FE9EFEA8FEB1FEBBFEC4E1
:10081000FECDFED7FEE0FEE9FEF2FEFBFF04FF0D7B
:10082000FF16FF1FFF27FF30FF38FF41FF49FF5131
:10083000FF59FF61FF68FF70FF77FF7FFF86FF8D25
:10084000FF93FF9AFFA0FFA7FFADFFB2FFB8FFBE67
:10085000FFC3FFC8FFCDFFD1FFD6FFDAFFDEFFE207
:10086000FFE6FFE9FFECFFEFFFF2FFF4FFF6FFF812
:10087000FFFAFFFCFFFDFFFEFFFF0000000000008D
:1008800000000000FFFFFFFEFFFDFFFCFFFAFFF886
:10089000FFF6FFF4FFF2FFEFFFECFFE9FFE6FFE2F8
:1008A000FFDEFFDAFFD6FFD1FFCDFFC8FFC3FFBEDB
:1008B000FFB8FFB2FFADFFA7FFA0FF9AFF93FF8D28
:1008C000FF86FF7FFF77FF70FF68FF61FF59FF51D1
:1008D000FF49FF41FF38FF30FF27FF1FFF16FF0DC5
:1008E000FF04FEFBFEF2FEE9FEE0FED7FECDFEC4F5
:1008F000FEBBFEB1FEA8FE9EFE95FE8BFE81FE783D
:10090000FE6EFE65FE5BFE52FE48FE3FFE36FE2C8E
:10091000FE23FE1AFE11FE08FDFFFDF6FDEDFDE4CF
:10092000FDDCFDD3FDCBFDC2FDBAFDB2FDAAFDA2EB
:10093000FD9BFD93FD8CFD84FD7DFD76FD70FD69C5
:10094000FD63FD5CFD56FD51FD4BFD45FD40FD3B4E
:10095000FD36FD32FD2DFD29FD25FD21FD1DFD1A74
:10096000FD17FD14FD11FD0FFD0DFD0BFD09FD072C
:10097000FD06FD05FD04FD03FD03FD03FD03FD0371
:10098000FD04FD05FD06FD07FD09FD0BFD0DFD0F39
:10099000FD11FD14FD17FD1AFD1DFD21FD25FD298D
:1009A000FD2DFD32FD36FD3BFD40FD45FD4BFD516E
:1009B000FD56FD5CFD63FD69FD70FD76FD7DFD84EA
:1009C000FD8CFD93FD9BFDA2FDAAFDB2FDBAFDC20B
:1009D000FDCBFDD3FDDCFDE4FDEDFDF6FDFFFE08E6
:1009E000FE11FE1AFE23FE2CFE36FE3FFE48FE528E
:0809F000FE5BFE65FE6EFE7861
:100C6D000109FE010A00010800011101020BFE81BC
:080C7D00020DFE81020FFE8151
:1009F800AF097E00EF64FE7023C295C294C296D2FE
:100A080091D290D292750BFE750C81750DFE750E04
:100A180081750FFE751081F50A020AF9EFF44E6030
:100A28000BC3EF94FCEE648094804024C295C2947A
:100A3800C296C291C290C292750BFE750C81750D5B
:100A4800FE750E81750FFE751081E4F50A020AF92C
:100A5800751400850915E51525E0FFE51433FE74C6
:100A6800002FF58274083EF583E493F50B74019327
:100A7800F50C74542515F515E43514F514C3E5156E
:100A880094FCE5149400400C74042515F51574FFC6
:100A98003514F514E51525E0FFE51433FE74002F31
:100AA800F58274083EF583E493F50D740193F50E11
:100AB80074542515F515E43514F514C3E51594FC9F
:100AC800E5149400400C74042515F51574FF3514CD
:100AD800F514E51525E0FFE51433FE74002FF582C3
:100AE80074083EF583E493F50F740193F510750AC5
:010AF80001FC
:100AF900E50CF5FBE50BF5FCE50EF5E9E50DF5EA89
:0C0B0900E510F5EBE50FF5ECE4F5082233
:100C0600E4F5D975B28375EF0475E10175E2C07537
:100C16009810758D96858D8B758E0C758921D28E63
:100C260043B810D2ACC283F5D875D90975DAC9753F
:100C3600DBC975DCC975F90375FAFD1209F843E6D7
:0D0C460010D2DE43A57743A408D2AF80FE94
:03002300020C5379
:100C5300C0E0309812C298E51170058599098002A9
:0A0C63001511750801B283D0E032CC
:03005B00020BA1F4
:100BA100C0E0C083C082C0D075D000C006C007308D
:100BB100DF1FC2DF75F90375FAFDE508600312094D
:100BC100F8E50A600CC291C290C292D295D294D239
:100BD1009630D80AC2D8E50A6004C295D29130D9BC
:100BE1000AC2D9E50A6004C294D29030DA0AC2DAA4
:100BF100E50A6004C296D292D007D006D0D0D08246
:050C0100D083D0E032B9
:03000000020B15DB
:0C0B1500787FE4F6D8FD758115020B5CBA
:100B2100020C06E493A3F8E493A34003F68001F2D8
:100B310008DFF48029E493A3F85407240CC8C333D5
:100B4100C4540F4420C8834004F456800146F6DFA4
:100B5100E4800B0102040810204080900C6DE47EBB
:100B6100019360BCA3FF543F30E509541FFEE49399
:100B7100A360010ECF54C025E060A840B8E493A360
:100B8100FAE493A3F8E493A3C8C582C8CAC583CA8B
:100B9100F0A3C8C582C8CAC583CADFE9DEE780BE43
:010C8500006E
:00000001FF
