:100AB900000306090C0F1216191C1F2225282B2EBC
:100AC900313437393C3F4244474A4C4F51545658C8
:100AD9005A5D5F61636567686A6C6D6F7172737582
:100AE900767778797A7B7B7C7D7D7E7E7E7E7E7F44
:100AF9007E7E7E7E7E7D7D7C7B7B7A79787776753E
:100B09007372716F6D6C6A68676563615F5D5A586E
:100B19005654514F4C4A4744423F3C393734312EA1
:100B29002B2825221F1C1916120F0C09060300FD7C
:100B3900FAF7F4F1EEEAE7E4E1DEDBD8D5D2CFCC7F
:100B4900C9C7C4C1BEBCB9B6B4B1AFACAAA8A6A343
:100B5900A19F9D9B9998969493918F8E8D8B8A894D
:100B69008887868585848383828282828281828244
:100B79008282828383848585868788898A8B8D8E04
:100B89008F9193949698999B9D9FA1A3A6A8AAAC8F
:100B9900AFB1B4B6B9BCBEC1C4C7C9CCCFD2D5D820
:0C0BA900DBDEE1E4E7EAEEF1F4F7FAFD30
:100DDD00030CFF0AB90310FF0BB5010B0001130043
:0F0DED000109000214FE020216FE020218FE02A5
:10080000AF0A7E00EF64FE7007F513759007801045
:10081000C3EF94FCEE64809480401AE4F513F590E5
:100820007514FE7515027516FE7517027518FE759E
:05083000190202097F1E
:10083500AB0C7E00E50E250AF9EE350DFA8B1BF59E
:100845001C891D120983FF3395E0FEFDFCE47BFC4A
:100855007A03F9F812099CE47BFFFAF9F8120D996D
:10086500A804A905AA06AB07AF0FE4FCFDFE120913
:100875009CE47BFFFAF9F8120D99EF2402F51FEEBF
:1008850034FEF51E7454251DF51DE4351CF51CFAC2
:10089500C3851183851282E51D9582EA9583400CF7
:1008A5007404251DF51D74FF351CF51CAB1BAA1C16
:1008B500A91D120983FF3395E0FEFDFCE47BFC7A5C
:1008C50003F9F812099CE47BFFFAF9F8120D99A8CF
:1008D50004A905AA06AB07AF0FE4FCFDFE12099CAF
:1008E500E47BFFFAF9F8120D99EF2402F521EE34B5
:1008F500FEF5207454251DF51DE4351CF51CFAC3C1
:10090500851183851282E51D9582EA9583400C74D5
:1009150004251DF51D74FF351CF51CAB1BAA1CA970
:100925001D120983FF3395E0FEFDFCE47BFC7A0391
:10093500F9F812099CE47BFFFAF9F8120D99A8045D
:10094500A905AA06AB07AF0FE4FCFDFE12099CE45E
:100955007BFFFAF9F8120D99EF2402F523EE34FE28
:10096500F522C2AF851E14851F1585201685211712
:0A097500F518852319D2AF751301A0
:04097F00E4F5092270
:100CFA00E4F5D975B28375EF0475E10175E2C07543
:100D0A009810758D96858D8B758E0C758921D28E6E
:100D1A0043B810D2ACC283F5D875D90975DAC9754A
:100D2A00DBC975DCC975F90475FAFC12080043E6DB
:100D3A0010D2DE43A57743A408D2AFE50960FC12BE
:040D4A00080080F726
:03002300020D4E7D
:070D4E00C0E0C0D030983F67
:100D550085991AC298E50B14601414602114602655
:100D65002403702BE51AF47026750B018021E51A12
:100D750064887005750B028016750B008011851A45
:0F0D85000F750B038009851A0A750B007509019C
:050D9400D0D0D0E032D8
:03005B00020BB5E0
:100BB500C0E0C0D030DF50E513602CC291C290C2B6
:100BC5009275F90475FAFCE515F5FBE514F5FCE5F8
:100BD50017F5E9E516F5EAE519F5EBE518F5ECD2B3
:100BE50095D294D296801E75F90475FAFCE515F533
:100BF500FBE514F5FCE517F5E9E516F5EAE519F564
:100C0500EBE518F5ECC2DF30D81CE5136016C2958C
:100C1500750801D3E5089400748094804004150894
:100C250080F1D291C2D830D91CE5136016C29475F3
:100C35000801D3E508940074809480400415088069
:100C4500F1D290C2D930DA1CE5136016C296750848
:100C550001D3E5089400748094804004150880F160
:090C6500D292C2DAD0D0D0E03204
:03000000020C6E81
:0C0C6E00787FE4F6D8FD758123020CB5F8
:10098300BB010689828A83E0225002E722BBFE0272
:09099300E32289828A83E49322A5
:10099C00E88FF0A4CC8BF0A42CFCE98EF0A42CFCFA
:1009AC008AF0EDA42CFCEA8EF0A4CDA8F08BF0A478
:1009BC002DCC3825F0FDE98FF0A42CCD35F0FCEBD7
:1009CC008EF0A4FEA9F0EB8FF0A4CFC5F02ECD399C
:0F09DC00FEE43CFCEAA42DCE35F0FDE43CFC2209
:100D9900C2D5E830E70FB2D5E4C39BFBE49AFAE485
:100DA90099F9E498F8EC30E717B2D5120DCF120A89
:100DB90027E4C39BFBE49AFAE499F9E498F88003E1
:100DC900120A2730D50DE4C39FFFE49EFEE49DFD82
:040DD900E49CFC2278
:100C7A00020CFAE493A3F8E493A34003F68001F28A
:100C8A0008DFF48029E493A3F85407240CC8C3337B
:100C9A00C4540F4420C8834004F456800146F6DF4A
:100CAA00E4800B0102040810204080900DDDE47EF0
:100CBA00019360BCA3FF543F30E509541FFEE4933F
:100CCA00A360010ECF54C025E060A840B8E493A306
:100CDA00FAE493A3F8E493A3C8C582C8CAC583CA31
:100CEA00F0A3C8C582C8CAC583CADFE9DEE780BEE9
:010DFC0000F6
:1009EB0075F008758200EF2FFFEE33FECD33CDCCC3
:1009FB0033CCC58233C5829BED9AEC99E582984046
:100A0B000CF582EE9BFEED9AFDEC99FC0FD5F0D622
:100A1B00E4CEFBE4CDFAE4CCF9A88222B800C1B94C
:100A2B000059BA002DEC8BF084CFCECDFCE5F0CB8A
:100A3B00F97818EF2FFFEE33FEED33FDEC33FCEBC3
:100A4B0033FB10D703994004EB99FB0FD8E5E4F97E
:100A5B00FA227818EF2FFFEE33FEED33FDEC33FC6B
:100A6B00C933C910D7059BE99A4007EC9BFCE99A5F
:100A7B00F90FD8E0E4C9FAE4CCFB2275F010EF2FA4
:100A8B00FFEE33FEED33FDCC33CCC833C810D707A4
:100A9B009BEC9AE899400AED9BFDEC9AFCE899F8DF
:0E0AAB000FD5F0DAE4CDFBE4CCFAE4C8F92272
:00000001FF
